:020000040800F2
:1000000000000220C51E00087D15000885150008A7
:100010008D150008951500089D15000800000000CA
:10002000000000000000000000000000F187000850
:10003000A515000800000000418A0008455A000884
:10004000151F0008151F0008151F0008151F0008C0
:10005000151F0008151F0008151F0008151F0008B0
:10006000151F0008151F0008151F0008151F0008A0
:10007000151F0008151F0008151F0008B5150008FA
:10008000C9150008151F0008151F00080000000012
:10009000000000000000000000000000151F000824
:1000A000151F0008DD150008151F0008151F0008A2
:1000B000151F0008F1150008151F0008151F00087E
:1000C000151F0008151F0008151F0008151F000840
:1000D000151F0008151F0008151F0008000000006C
:1000E00005160008151F0008151F00080000000075
:1000F000000000000000000000000000151F0008C4
:1001000000000000151F0008151F0008151F00083B
:1001100000000000000000000000000000000000DF
:10012000151F0008151F00082D160008151F0008D0
:10013000151F000800000000000000000000000083
:10014000000000000000000000000000151F000873
:10015000151F0008151F000841160008151F00088C
:10016000151F0008151F0008000000000000000017
:10017000000000000000000000000000000000007F
:1001800000000000151F0008000000000000000033
:08019000151F0008151F0008EF
:1001A00010B5054C237833B9044B13B10448AFF3B1
:1001B00000800123237010BDDC010020000000003E
:1001C00078CE000808B5034B1BB103490348AFF3D1
:1001D000008008BD00000000E001002078CE00088B
:1001E00001F0FF01102A2BDB10F0070F08D010F8E8
:1001F000013B013A8B422DD010F0070F42B3F6D1EC
:10020000F0B441EA012141EA014122F007047FF004
:1002100000070023F0E80256083C85EA010586EA5B
:10022000010685FA47F5A3FA87F586FA47F6A5FA97
:1002300087F68EB9EED1F0BC01F0FF0102F00702A3
:1002400032B110F8013B013A83EA010313B1F8D14E
:100250000020704701387047002D06BF354603382F
:10026000073815F0010F07D1013015F4807F02BF68
:10027000013015F4C03F0130F0BC0138704700BFB9
:1002800081F0004102E000BF83F0004330B54FEA47
:1002900041044FEA430594EA050F08BF90EA020FB4
:1002A0001FBF54EA000C55EA020C7FEA645C7FEA47
:1002B000655C00F0E2804FEA5454D4EB5555B8BF6A
:1002C0006D420CDD2C4480EA020281EA030382EADB
:1002D000000083EA010180EA020281EA0303362D6D
:1002E00088BF30BD11F0004F4FEA01314FF4801C40
:1002F0004CEA113102D0404261EB410113F0004F52
:100300004FEA03334CEA133302D0524263EB430308
:1003100094EA050F00F0A780A4F10104D5F1200EA6
:100320000DDB02FA0EFC22FA05F2801841F1000101
:1003300003FA0EF2801843FA05F359410EE0A5F1D5
:1003400020050EF1200E012A03FA0EFC28BF4CF006
:10035000020C43FA05F3C01851EBE37101F00045BC
:1003600007D54FF0000EDCF1000C7EEB00006EEBC9
:100370000101B1F5801F1BD3B1F5001F0CD3490853
:100380005FEA30004FEA3C0C04F101044FEA4452AA
:1003900012F5800F80F09A80BCF1004F08BF5FEA31
:1003A000500C50F1000041EB045141EA050130BD11
:1003B0005FEA4C0C404141EB0101013C28BFB1F523
:1003C000801FE9D291F0000F04BF01460020B1FA6E
:1003D00081F308BF2033A3F10B03B3F120020CDA41
:1003E0000C3208DD02F1140CC2F10C0201FA0CF01F
:1003F00021FA02F10CE002F11402D8BFC2F1200C84
:1004000001FA02F120FA0CFCDCBF41EA0C01904039
:10041000E41AA2BF01EB0451294330BD6FEA040482
:100420001F3C1CDA0C340EDC04F11404C4F120026D
:1004300020FA04F001FA02F340EA030021FA04F37F
:1004400045EA030130BDC4F10C04C4F1200220FAD6
:1004500002F001FA04F340EA0300294630BD21FA14
:1004600004F0294630BD94F0000F83F4801306BFDA
:1004700081F480110134013D4EE77FEA645C18BFCE
:100480007FEA655C29D094EA050F08BF90EA020F65
:1004900005D054EA000C04BF1946104630BD91EA5D
:1004A000030F1EBF0021002030BD5FEA545C05D160
:1004B0004000494128BF41F0004130BD14F580049F
:1004C0003CBF01F5801130BD01F0004545F0FE4113
:1004D00041F470014FF0000030BD7FEA645C1ABF48
:1004E000194610467FEA655C1CBF0B46024650EA7F
:1004F000013406BF52EA033591EA030F41F40021AB
:1005000030BD00BF90F0000F04BF0021704730B530
:100510004FF4806404F132044FF000054FF0000105
:1005200050E700BF90F0000F04BF0021704730B5C6
:100530004FF4806404F1320410F0004548BF40429B
:100540004FF000013EE700BF42004FEAE2014FEAF0
:1005500031014FEA02701FBF12F07F4393F07F4FCB
:1005600081F06051704732F07F4208BF704793F0CE
:100570007F4F04BF41F40021704730B54FF46074E1
:1005800001F0004521F000411CE700BF50EA0102E4
:1005900008BF704730B54FF000050AE050EA01028D
:1005A00008BF704730B511F0004502D5404261EBFD
:1005B00041014FF4806404F132045FEA915C3FF43E
:1005C000D8AE4FF003025FEADC0C18BF03325FEADB
:1005D000DC0C18BF033202EBDC02C2F1200300FA8C
:1005E00003FC20FA02F001FA03FE40EA0E0021FAB1
:1005F00002F11444BDE600BF70B54FF0FF0C4CF49F
:10060000E06C1CEA11541DBF1CEA135594EA0C0F50
:1006100095EA0C0F00F0DEF82C4481EA030621EA8B
:100620004C5123EA4C5350EA013518BF52EA0335C6
:1006300041F4801143F4801338D0A0FB02CE4FF078
:100640000005E1FB02E506F00042E0FB03E54FF0A8
:100650000006E1FB03569CF0000F18BF4EF0010EA0
:10066000A4F1FF04B6F5007F64F5407404D25FEA9C
:100670004E0E6D4146EB060642EAC62141EA55514F
:100680004FEAC52040EA5E504FEACE2EB4F1FD0C91
:1006900088BFBCF5E06F1ED8BEF1004F08BF5FEA0F
:1006A000500E50F1000041EB045170BD06F00046C1
:1006B00046EA010140EA020081EA0301B4EB5C046E
:1006C000C2BFD4EB0C0541EA045170BD41F4801166
:1006D0004FF0000E013C00F3AB8014F1360FDEBF8B
:1006E000002001F0004170BDC4F10004203C35DA67
:1006F0000C341BDC04F11404C4F1200500FA05F3EA
:1007000020FA04F001FA05F240EA020001F000428A
:1007100021F0004110EBD37021FA04F642EB060100
:100720005EEA430E08BF20EAD37070BDC4F10C042A
:10073000C4F1200500FA04F320FA05F001FA04F2EE
:1007400040EA020001F0004110EBD37041F10001DA
:100750005EEA430E08BF20EAD37070BDC4F12005E5
:1007600000FA05F24EEA020E20FA04F301FA05F24D
:1007700043EA020321FA04F001F0004121FA04F2F5
:1007800020EA020000EBD3705EEA430E08BF20EAC5
:10079000D37070BD94F0000F0FD101F000464000FF
:1007A00041EB010111F4801F08BF013CF7D041EA81
:1007B000060195F0000F18BF704703F00046520085
:1007C00043EB030313F4801F08BF013DF7D043EA56
:1007D0000603704794EA0C0F0CEA135518BF95EA0C
:1007E0000C0F0CD050EA410618BF52EA4306D1D193
:1007F00081EA030101F000414FF0000070BD50EAB2
:10080000410606BF1046194652EA430619D094EA3B
:100810000C0F02D150EA013613D195EA0C0F05D125
:1008200052EA03361CBF104619460AD181EA030179
:1008300001F0004141F0FE4141F470014FF0000031
:1008400070BD41F0FE4141F4780170BD70B54FF0CC
:10085000FF0C4CF4E06C1CEA11541DBF1CEA13554C
:1008600094EA0C0F95EA0C0F00F0A7F8A4EB05042E
:1008700081EA030E52EA03354FEA013100F0888025
:100880004FEA03334FF0805545EA131343EA1263EE
:100890004FEA022245EA111545EA10654FEA0026A3
:1008A0000EF000419D4208BF964244F1FD0404F55C
:1008B000407402D25B084FEA3202B61A65EB0305B8
:1008C0005B084FEA32024FF480104FF4002CB6EB75
:1008D000020E75EB030E22BFB61A754640EA0C00F5
:1008E0005B084FEA3202B6EB020E75EB030E22BF35
:1008F000B61A754640EA5C005B084FEA3202B6EB76
:10090000020E75EB030E22BFB61A754640EA9C0034
:100910005B084FEA3202B6EB020E75EB030E22BF04
:10092000B61A754640EADC0055EA060E18D04FEAC2
:10093000051545EA16754FEA06164FEAC30343EA62
:1009400052734FEAC2025FEA1C1CC0D111F4801F2F
:100950000BD141EA00014FF000004FF0004CB6E728
:1009600011F4801F04BF01430020B4F1FD0C88BFC7
:10097000BCF5E06F3FF6AFAEB5EB030C04BFB6EBD2
:10098000020C5FEA500C50F1000041EB045170BDC5
:100990000EF0004E4EEA113114EB5C04C2BFD4EBF2
:1009A0000C0541EA045170BD41F480114FF0000E76
:1009B000013C90E645EA060E8DE60CEA135594EAF2
:1009C0000C0F08BF95EA0C0F3FF43BAF94EA0C0FF5
:1009D0000AD150EA01347FF434AF95EA0C0F7FF46A
:1009E00025AF104619462CE795EA0C0F06D152EABE
:1009F00003353FF4FDAE1046194622E750EA4106A2
:100A000018BF52EA43067FF4C5AE50EA41047FF4B2
:100A10000DAF52EA43057FF4EBAE12E74FF0FF3C17
:100A200006E000BF4FF0010C02E000BF4FF0010CE8
:100A30004DF804CD4FEA410C7FEA6C5C4FEA430C61
:100A400018BF7FEA6C5C1BD001B050EA410C0CBFB0
:100A500052EA430C91EA030F02BF90EA020F002012
:100A6000704710F1000F91EA030F58BF994208BF79
:100A700090422CBFD8176FEAE37040F00100704736
:100A80004FEA410C7FEA6C5C02D150EA013C07D18D
:100A90004FEA430C7FEA6C5CD6D152EA033CD3D0D8
:100AA0005DF8040B704700BF8446104662468C46D2
:100AB0001946634600E000BF01B5FFF7B7FF002805
:100AC00048BF10F1000F01BD4DF808EDFFF7F4FF2E
:100AD0000CBF012000205DF808FB00BF4DF808EDB9
:100AE000FFF7EAFF34BF012000205DF808FB00BFDC
:100AF0004DF808EDFFF7E0FF94BF012000205DF8FE
:100B000008FB00BF4DF808EDFFF7CEFF94BF0120B2
:100B100000205DF808FB00BF4DF808EDFFF7C4FFAB
:100B200034BF012000205DF808FB00BF4FEA410CF4
:100B30007FEA6C5C02D150EA013C0AD14FEA430CD7
:100B40007FEA6C5C02D152EA033C02D14FF0000014
:100B500070474FF0010070474A0011D212F50012A1
:100B600011D20DD56FF47873B3EB62520ED44FEA05
:100B7000C12343F0004343EA505323FA02F0704785
:100B80004FF00000704750EA013002D14FF0FF30C3
:100B900070474FF0000070474FEA4102B2F1E04366
:100BA00024BFB3F5001CDCF1FE5C0DD901F0004C54
:100BB0004FEAC0024CEA5070B2F1004F40EB8300A4
:100BC00008BF20F00100704711F0804F21D113F1D0
:100BD0003872BCBF01F00040704741F480114FEA09
:100BE0005252C2F11802C2F1200C10FA0CF320FA92
:100BF00002F018BF40F001004FEAC1234FEAD323AF
:100C000003FA0CFC40EA0C0023FA02F34FEA430318
:100C1000CCE77FEA625307D150EA01331EBF4FF0A1
:100C2000FE4040F44000704701F0004040F0FE40BC
:100C300040F40000704700BF53B94AB9002908BF0B
:100C400000281CBF4FF0FF314FF0FF3000F0BEB95D
:100C5000ADF1080C6DE904CE00F03CF8DDF804E0DD
:100C6000DDE9022304B0704738B5002200230446B2
:100C70000D46FFF733FF28B920462946BDE8384026
:100C800000F00AB8204605F1004100F005F84042A6
:100C900061EB410138BD00BFD0B50C4B00220646C8
:100CA0000F46FFF7A9FCFFF757FF0446FFF72AFCA2
:100CB000074B0022FFF7A0FC02460B4630463946A0
:100CC000FFF7E2FAFFF748FF2146D0BD0000F03DF4
:100CD0000000F0412DE9F047089D8E460446884605
:100CE000002B4AD18A42174662D9B2FA82F64EB137
:100CF000C6F1200301FA06F820FA03F3B74043EAED
:100D00000808B4404FEA174E1FFA87FCB8FBFEF103
:100D1000230C0EFB118843EA084301FB0CF29A42B4
:100D200009D9FB1801F1FF3080F0EA809A4240F2C5
:100D3000E78002393B449A1AA3B2B2FBFEF00EFBE5
:100D4000102243EA024300FB0CFC9C4509D9FB1826
:100D500000F1FF3280F0D6809C4540F2D3803B44C6
:100D6000023840EA0140A3EB0C0300211DB1F3401F
:100D70000022C5E90032BDE8F0878B4205D90DB1EC
:100D8000C5E9000100210846F5E7B3FA83F100291F
:100D900046D1734502D3824200F20581841A6EEB7C
:100DA000030201209046002DE5D0C5E90048E2E7A6
:100DB000002A00F09080B2FA82F6002E40F0A48063
:100DC0008A1A030C4FEA174E80B2BCB20121B2FB63
:100DD000FEFC0EFB1C2243EA024304FB0CF29A4287
:100DE00007D9FB180CF1FF3802D29A4200F2E080DA
:100DF000C4469B1AB3FBFEF20EFB123340EA0343D8
:100E000002FB04F49C4207D9FB1802F1FF3002D226
:100E10009C4200F2CA8002461B1B42EA0C40A5E736
:100E2000C1F120068B4022FA06F71F430EFA01F4A7
:100E300020FA06F32EFA06FE4FEA1749234300FA7A
:100E400001F81FFA87FCBEFBF9F01C0C09FB10EE41
:100E500044EA0E4400FB0CFEA64502FA01F209D951
:100E60003C1900F1FF3A80F09C80A64540F2998041
:100E700002383C44A4EB0E041FFA83FEB4FBF9F3E2
:100E800009FB13444EEA044403FB0CFCA44508D9B7
:100E90003C1903F1FF3E80F08280A4457FD9023BDC
:100EA0003C4443EA0040A4EB0C04A0FB02EC644584
:100EB0007346E14662D35FD05DB1B8EB030264EBE9
:100EC000090404FA06F622FA01F31E43CC40C5E9F0
:100ED000006400214FE7B1FBF2FC010C41EA0E4136
:100EE00080B240EA01423B4638463C46B846BE46E0
:100EF0002026B1FBF7F1A2EB080241EA0C4166E7BC
:100F0000014618E710462CE7C6F120022EFA02F33C
:100F1000B740B14020FA02F24FEA174E0A43B3FB42
:100F2000FEF8BCB20EFB1833110C41EA034108FB7A
:100F300004F9B04089454FEA104380B23ED9791890
:100F400008F1FF3C01D289451FD8A1EB0901B1FB93
:100F5000FEF909FB04F80EFB191192B242EA0142B4
:100F6000424529D2BA1809F1FF31C4D24245C2D252
:100F7000A9F102013A44BEE7F0459DD2BEEB02035F
:100F80006CEB070C0138E14696E7A7EB09094944E9
:100F9000A8F1020CB1FBFEF909FB04F8DBE773468C
:100FA0007FE7504666E70846FDE63B44023A33E7F2
:100FB000ACF1020C3B441CE749469CE7A1EB09015C
:100FC000C446B1FBFEF909FB04F8C4E7704700BF53
:100FD00080B582B000AF00237B601F4B1B6B1E4AA5
:100FE00043F4800313631C4B1B6B03F480037B608F
:100FF0007B6800233B60184B1B6B174A43F40013BC
:101000001363154B1B6B03F400133B603B6800221A
:1010100005210F2001F07AF80F2001F093F800224B
:101020000521102001F072F8102001F08BF8002249
:1010300005213A2001F06AF83A2001F083F80022F5
:101040000521462001F062F8462001F07BF800BF40
:101050000837BD4680BD00BF0038024080B500AFF4
:1010600000220421202004F0EFFE0346314A1360E1
:1010700000221C21102004F0E7FE03462E4A1360D4
:1010800000221C21082004F0DFFE03462B4A1360D7
:1010900000221C21082004F0D7FE0346284A1360D2
:1010A00000220621082004F0CFFE0346254A1360E3
:1010B00000228221142004F0C7FE0346224A136056
:1010C000224A0021224804F043FD0346214A1360CE
:1010D000214A0021214804F03BFD0346204A1360C9
:1010E000204A0021204804F033FD03461F4A1360C4
:1010F0001F4A00211F4804F02BFD03461E4A1360BF
:101100001E4A00211E4804F023FD03461D4A1360B9
:101110001D4A00211D4804F01BFD03461C4A1360B4
:101120001C4A00211C4804F013FD03461B4A1360AF
:1011300000BF80BD10020020140200201802002011
:1011400024020020200200201C0200204CD10008B4
:10115000A11100082802002070D10008799500082C
:10116000F801002094D1000841970008FC010020FC
:10117000B8D100089D98000800020020DCD10008CA
:10118000B59A00080402002000D200084199000826
:101190000802002024D20008059800080C02002054
:1011A00080B582B000AF78604FF40051044801F080
:1011B00006FD4FF47A7004F02CFE00BFF4E700BF88
:1011C0000008024080B58AB000AF07F11403002286
:1011D0001A605A609A60DA601A6100233B61454BDD
:1011E0001B6B444A43F004031363424B1B6B03F035
:1011F00004033B613B690023FB603E4B1B6B3D4A94
:1012000043F0800313633B4B1B6B03F08003FB60D5
:10121000FB680023BB60374B1B6B364A43F001036E
:101220001363344B1B6B03F00103BB60BB680023EB
:101230007B60304B1B6B2F4A43F0020313632D4B33
:101240001B6B03F002037B607B6800224FF40051AC
:10125000294801F09BFC0022F021284801F096FC6F
:1012600000228021264801F091FC4FF400537B615D
:101270000123BB610223FB6100233B6207F11403DE
:1012800019461D4801F0FEFAF0237B610123BB6182
:101290000023FB6100233B6207F114031946174842
:1012A00001F0F0FA4FF470437B614FF48813BB6197
:1012B0000223FB6107F114031946114801F0E2FA19
:1012C00080237B610123BB610023FB6100233B6220
:1012D00007F1140319460A4801F0D4FA0022052147
:1012E000282000F013FF282000F02CFF00BF283733
:1012F000BD4680BD003802400008024000000240A8
:101300000004024080B500AF00F006FE00F018F8BF
:10131000FFF758FFFFF75CFE00F0FAFC00F056FA0A
:1013200000F0CCFA00F04AFB08F08CF807F03CFE25
:1013300004F0A2FBFFF792FE04F0E4FB00BFFDE720
:1013400080B594B000AF07F1200330220021184689
:1013500009F010FE07F10C0300221A605A609A602F
:10136000DA601A610023BB60274B1B6C264A43F0EE
:1013700080531364244B1B6C03F08053BB60BB6829
:1013800000237B60214B1B68204A43F440431360D9
:101390001E4B1B6803F440437B607B6801233B6268
:1013A0004FF480337B620223BB634FF48003FB6303
:1013B0000C233B6460237B640223BB640423FB6433
:1013C00007F12003184601F02DFC0346002B01D045
:1013D00000F030F80F23FB6002233B6100237B61A8
:1013E0004FF48053BB610023FB6107F10C03032121
:1013F000184601F08FFE0346002B01D000F01AF8CA
:1014000000BF5037BD4680BD00380240007000402C
:1014100080B582B000AF78607B681B68044A934255
:1014200001D100F09BFD00BF0837BD4680BD00BF65
:101430000000014080B400AF72B600BF00BFFDE7FE
:1014400080B582B000AF00237B60124B5B6C114A09
:1014500043F4804353640F4B5B6C03F480437B6025
:101460007B6800233B600B4B1B6C0A4A43F08053A4
:101470001364084B1B6C03F080533B603B680022F5
:101480000F216FF0010000F041FE00BF0837BD469C
:1014900080BD00BF0038024080B58CB000AF7860DE
:1014A0000023BB6200237B620023BB602E4B5B6C7E
:1014B0002D4A43F0010353642B4B5B6C03F0010393
:1014C000BB60BB6807F10C0207F110031146184618
:1014D00002F000F801F0EAFFB862BB6A234AA2FBFF
:1014E00003239B0C013B7B62214B224A1A60204B59
:1014F00040F2E732DA601E4A7B6A53601C4B0022DE
:101500001A611B4B00229A60194B00229A611848FD
:1015100002F012F8034687F82F3097F82F30002B8F
:101520001BD1134802F0B2F8034687F82F3097F822
:101530002F30002B11D1192000F004FE7B680F2BF7
:1015400008D800227968192000F0E0FD0A4A7B687B
:10155000136002E0012387F82F3097F82F301846E8
:101560003037BD4680BD00BF0038024083DE1B43DC
:101570002C020020000001400400002080B400AFD5
:1015800000BFFDE780B400AF00BFFDE780B400AF4F
:1015900000BFFDE780B400AF00BFFDE780B400AF3F
:1015A00000BFFDE780B400AF00BFBD465DF8047B1F
:1015B0007047000080B500AF024800F0F9FE00BFA0
:1015C00080BD00BF5003002080B500AF024800F08E
:1015D000EFFE00BF80BD00BFB003002080B500AFAC
:1015E000024802F02BFC00BF80BD00BF2C0200208F
:1015F00080B500AF024802F021FC00BF80BD00BFF3
:10160000C002002080B500AF4FF4805001F0F2FA24
:101610004FF4005001F0EEFA4FF4804001F0EAFA86
:101620004FF4004001F0E6FA00BF80BD80B500AF86
:10163000024800F0BDFE00BF80BD00BF580400207E
:1016400080B500AF024800F0B3FE00BF80BD00BF10
:10165000B804002080B400AF01231846BD465DF8F1
:10166000047B704780B582B000AF7860396009F0C4
:101670009BFC034616221A604FF0FF3318460837CA
:10168000BD4680BD80B582B000AF78604FF0FF31BD
:101690007868FFF7E7FF00BFFDE780B586B000AFD1
:1016A000F860B9607A6000237B610AE0AFF30080E4
:1016B0000146BB685A1CBA60CAB21A707B69013312
:1016C0007B617A697B689A42F0DB7B681846183741
:1016D000BD4680BD80B483B000AF78604FF0FF336B
:1016E00018460C37BD465DF8047B704780B483B064
:1016F00000AF786039603B684FF400525A600023B5
:1017000018460C37BD465DF8047B704780B483B043
:1017100000AF7860012318460C37BD465DF8047BA6
:10172000704780B485B000AFF860B9607A6000237C
:1017300018461437BD465DF8047B704780B586B007
:1017400000AF7860144A154BD31A7B617B693B610B
:10175000134B1B68002B02D1114B124A1A60104B1D
:101760001A687B6813443A699A4207D209F01CFC54
:1017700003460C221A604FF0FF3309E0084B1B6848
:10178000FB60074B1A687B681344054A1360FB68CB
:1017900018461837BD4680BD000002200004000036
:1017A000740200209058002080B400AF064BD3F89C
:1017B0008830054A43F47003C2F8883000BFBD4644
:1017C0005DF8047B704700BF00ED00E080B58AB093
:1017D00000AF07F1200300221A605A603B1D00226F
:1017E0001A605A609A60DA601A615A619A61324BE3
:1017F0004FF080421A60304B18225A602E4B002264
:101800009A602D4BC722DA602B4B00221A612A4BBB
:1018100000229A61284801F09BFF0346002B01D06B
:10182000FFF708FE00233B6200237B6207F12003E1
:101830001946214803F05AF90346002B01D0FFF75F
:10184000F9FD60237B600023BB600023FB60002365
:101850007B613B1D00221946174802F0DFFB03465F
:10186000002B01D0FFF7E6FD3B1D0422194612486C
:1018700002F0D4FB0346002B01D0FFF7DBFD3B1D3C
:10188000082219460C4802F0C9FB0346002B01D080
:10189000FFF7D0FD3B1D0C221946074802F0BEFBA6
:1018A0000346002B01D0FFF7C5FD034800F0AAF95D
:1018B00000BF2837BD4680BD7802002080B58EB0BD
:1018C00000AF07F1280300221A605A609A60DA60BC
:1018D00007F1200300221A605A603B1D00221A60A3
:1018E0005A609A60DA601A615A619A61314B324AE1
:1018F0001A60304B00225A602E4B00229A602D4B0A
:101900007C22DA602B4B00221A612A4B00229A615A
:10191000284801F011FE0346002B01D0FFF78AFD95
:101920004FF48053BB6207F128031946214802F0A7
:1019300037FC0346002B01D0FFF77CFD1D4801F06A
:1019400007FF0346002B01D0FFF774FD00233B6225
:1019500000237B6207F120031946164803F0C6F8FE
:101960000346002B01D0FFF765FD60237B60002359
:10197000BB600023FB6000237B613B1D00221946F6
:101980000C4802F04BFB0346002B01D0FFF752FD41
:101990003B1D04221946074802F040FB0346002B7A
:1019A00001D0FFF747FD034800F02CF900BF38379E
:1019B000BD4680BDC00200200004004080B58AB052
:1019C00000AF07F1200300221A605A603B1D00227D
:1019D0001A605A609A60DA601A615A619A61214B02
:1019E000214A1A601F4B00225A601E4B00229A6047
:1019F0001C4BC722DA601B4B00221A61194B0022D4
:101A00009A61184801F0A4FE0346002B01D0FFF7AD
:101A100011FD00233B6200237B6207F1200319467E
:101A2000104803F063F80346002B01D0FFF702FDD6
:101A300060237B600023BB600023FB6000237B618D
:101A40003B1D00221946074802F0E8FA0346002B26
:101A500001D0FFF7EFFC034800F0D4F800BF2837AF
:101A6000BD4680BD080300200008004080B485B05A
:101A700000AF78607B681B68B3F1804F0ED1002304
:101A8000FB60134B1B6C124A43F001031364104BB1
:101A90001B6C03F00103FB60FB6812E07B681B68B2
:101AA0000C4A93420DD10023BB60094B1B6C084AC2
:101AB00043F004031364064B1B6C03F00403BB6088
:101AC000BB6800BF1437BD465DF8047B704700BF9C
:101AD000003802400008004080B584B000AF786054
:101AE0007B681B68414A93427BD10023FB60404BDB
:101AF0001B6C3F4A43F0020313643D4B1B6C03F025
:101B00000203FB60FB683B4B3B4A1A60394B4FF0CA
:101B100020625A60374B40229A60364B0022DA60CE
:101B2000344B4FF480621A61324B4FF400625A61B9
:101B3000304B4FF400529A612E4B0022DA612D4B4C
:101B400000221A622B4B00225A622A4800F008FB3E
:101B50000346002B01D0FFF76DFC7B68254A5A62D3
:101B6000244A7B6893637B68224A9A63214A7B6894
:101B70009363224B224A1A60204B4FF020625A6036
:101B80001E4B40229A601D4B0022DA601B4B4FF423
:101B900080621A61194B4FF400625A61174B4FF47F
:101BA00000529A61154B0022DA61144B00221A622E
:101BB000124B00225A62114800F0D2FA0346002B61
:101BC00001D0FFF737FC7B680C4A9A620B4A7B68AE
:101BD0009363002205211D2000F098FA1D2000F0DB
:101BE000B1FA00BF1037BD4680BD00BF0004004001
:101BF000003802405003002070600240B003002013
:101C00008860024080B58AB000AF786007F11403A5
:101C100000221A605A609A60DA601A617B681B6859
:101C2000B3F1804F1ED100233B61344B1B6B334A11
:101C300043F001031363314B1B6B03F001033B6162
:101C40003B690F237B610223BB610023FB610023FF
:101C50003B6201237B6207F114031946284800F018
:101C600011FE46E07B681B68264A93421ED1002382
:101C7000FB60224B1B6B214A43F0020313631F4B93
:101C80001B6B03F00203FB60FB6830237B610223C4
:101C9000BB610023FB6100233B6202237B6207F1EF
:101CA00014031946184800F0EDFD22E07B681B681C
:101CB000164A93421DD10023BB60104B1B6B0F4A89
:101CC00043F0020313630D4B1B6B03F00203BB6075
:101CD000BB6840237B610223BB610223FB610023BD
:101CE0003B6202237B6207F114031946064800F0A9
:101CF000C9FD00BF2837BD4680BD00BF0038024087
:101D000000000240000400400004024000080040BF
:101D100080B500AF114B124A1A60104B4FF4E132FC
:101D20005A600E4B00229A600C4B0022DA600B4B7B
:101D300000221A61094B0C225A61084B00229A6159
:101D4000064B0022DA61054802F052FF0346002BE1
:101D500001D0FFF76FFB00BF80BD00BF1004002063
:101D60000010014080B58AB000AF786007F114031D
:101D700000221A605A609A60DA601A617B681B68F8
:101D8000494A934240F08B8000233B61474B5B6C98
:101D9000464A43F010035364444B5B6C03F010035A
:101DA0003B613B690023FB60404B1B6B3F4A43F0A8
:101DB000010313633D4B1B6B03F00103FB60FB68E6
:101DC0004FF4C0637B610223BB610023FB610323EB
:101DD0003B6207237B6207F114031946344800F085
:101DE00051FD344B344A1A60324B4FF000625A6056
:101DF000304B00229A602F4B0022DA602D4B4FF4BB
:101E000080621A612B4B00225A612A4B00229A6190
:101E1000284B0022DA61274B4FF400321A62254B1F
:101E200000225A62234800F09BF90346002B01D0A0
:101E3000FFF700FB7B681F4ADA631E4A7B689363E7
:101E40001E4B1F4A1A601D4B4FF000625A601B4B1D
:101E500040229A60194B0022DA60184B4FF48062DE
:101E60001A61164B00225A61144B00229A61134BDF
:101E70000022DA61114B4FF400321A620F4B00223C
:101E80005A620E4800F06CF90346002B01D0FFF7B0
:101E9000D1FA7B68094A9A63084A7B68936300BF5A
:101EA0002837BD4680BD00BF001001400038024009
:101EB000000002405804002040640240B8040020A2
:101EC000B8640240DFF834D0FFF76EFC0C480D49CF
:101ED0000D4A002302E0D458C4500433C4188C4285
:101EE000F9D30A4A0A4C002301E013600432A242EB
:101EF000FBD309F05FF8FFF705FA704700000220F6
:101F000000000020DC01002030D60008DC010020A9
:101F100090580020FEE7000080B500AF0E4B1B6814
:101F20000D4A43F4007313600B4B1B680A4A43F4D9
:101F300080631360084B1B68074A43F48073136087
:101F4000032000F0D8F80F20FFF7A6FAFFF778FA81
:101F50000023184680BD00BF003C024080B400AFA3
:101F6000064B1B781A46064B1B681344044A136041
:101F700000BFBD465DF8047B704700BF080000202D
:101F80001805002080B400AF034B1B681846BD46FF
:101F90005DF8047B704700BF1805002080B485B051
:101FA00000AF78607B6803F00703FB600C4BDB68D5
:101FB000BB60BA684FF6FF031340BB60FB681A02B0
:101FC000BB68134343F0BF6343F40033BB60044A70
:101FD000BB68D36000BF1437BD465DF8047B704713
:101FE00000ED00E080B400AF044BDB681B0A03F097
:101FF00007031846BD465DF8047B704700ED00E01E
:1020000080B483B000AF0346FB7197F90730002B13
:102010000BDBFB7903F01F02074997F907305B09D7
:10202000012000FA02F241F8232000BF0C37BD4620
:102030005DF8047B704700BF00E100E080B483B02E
:1020400000AF03463960FB7197F90730002B0ADBBC
:102050003B68DAB20C4997F907301201D2B20B444F
:1020600083F800230AE03B68DAB20849FB7903F001
:102070000F03043B1201D2B20B441A7600BF0C3797
:10208000BD465DF8047B704700E100E000ED00E034
:1020900080B489B000AFF860B9607A60FB6803F083
:1020A0000703FB61FB69C3F10703042B28BF04236B
:1020B000BB61FB690433062B02D9FB69033B00E0DB
:1020C00000237B614FF0FF32BB6902FA03F3DA436E
:1020D000BB681A407B699A404FF0FF317B6901FA77
:1020E00003F3D9437B680B40134318462437BD469E
:1020F0005DF8047B704780B582B000AF7860786887
:10210000FFF74CFF00BF0837BD4680BD80B586B0E5
:1021100000AF0346B9607A60FB7300237B61FFF771
:1021200061FF78617A68B9687869FFF7B1FF0246A4
:1021300097F90F3011461846FFF780FF00BF183798
:10214000BD4680BD80B582B000AF0346FB7197F9F4
:1021500007301846FFF754FF00BF0837BD4680BD63
:1021600080B586B000AF786000237B61FFF70AFF7F
:1021700038617B68002B01D1012399E07B68022242
:1021800083F835207B68002283F834207B681B6845
:102190001A687B681B6822F001021A600FE0FFF7E3
:1021A000F1FE02463B69D31A052B08D97B68202231
:1021B0005A657B68032283F83520032378E07B6827
:1021C0001B681B6803F00103002BE8D17B681B68C8
:1021D0001B687B617A69384B13407B617B685A6866
:1021E0007B689B681A437B68DB681A437B681B69C2
:1021F0001A437B685B691A437B689B691A437B6857
:10220000DB691A437B681B6A13437A6913437B615A
:102210007B685B6A042B07D17B68DA6A7B681B6B7F
:1022200013437A6913437B617B681B687A691A6080
:102230007B681B685B697B617B6923F007037B61BB
:102240007B685B6A7A6913437B617B685B6A042BFA
:1022500017D17B689B6A7A6913437B617B68DB6A71
:10226000002B0ED0786800F091FA0346002B08D0BE
:102270007B6840225A657B68012283F83520012360
:1022800016E07B681B687A695A61786800F048FA42
:102290000346FB607B68DB6D3F229A40FB689A60D7
:1022A0007B6800225A657B68012283F83520002371
:1022B00018461837BD4680BD3F8010F080B586B007
:1022C00000AFF860B9607A603B600023FB75FB6883
:1022D0009B6D3B61FB6893F83430012B01D10223E5
:1022E00040E0FB68012283F83420FB6893F8353026
:1022F000DBB2012B2FD1FB68022283F83520FB686B
:1023000000225A653B687A68B968F86800F0DAF923
:10231000FB68DB6D3F229A403B699A60FB681B6853
:102320001A68FB681B6842F016021A60FB681B6C97
:10233000002B07D0FB681B681A68FB681B6842F01B
:1023400008021A60FB681B681A68FB681B6842F089
:1023500001021A6005E0FB68002283F834200223A2
:10236000FB75FB7D18461837BD4680BD80B483B031
:1023700000AF78607B6893F83530DBB2022B04D075
:102380007B6880225A6501230CE07B68052283F874
:1023900035207B681B681A687B681B6822F0010285
:1023A0001A60002318460C37BD465DF8047B704761
:1023B00080B586B000AF78600023BB608E4B1B6891
:1023C0008E4AA2FB03239B0A7B617B689B6D3B616A
:1023D0003B691B68FB607B68DB6D08229A40FB68E9
:1023E0001340002B1AD07B681B681B6803F00403A2
:1023F000002B13D07B681B681A687B681B6822F06F
:1024000004021A607B68DB6D08229A403B699A607F
:102410007B685B6D43F001027B685A657B68DB6D0E
:1024200001229A40FB681340002B12D07B681B6886
:102430005B6903F08003002B0BD07B68DB6D01220E
:102440009A403B699A607B685B6D43F002027B684F
:102450005A657B68DB6D04229A40FB681340002BB1
:1024600012D07B681B681B6803F00203002B0BD0A3
:102470007B68DB6D04229A403B699A607B685B6DE8
:1024800043F004027B685A657B68DB6D10229A403A
:10249000FB681340002B43D07B681B681B6803F06C
:1024A0000803002B3CD07B68DB6D10229A403B690F
:1024B0009A607B681B681B6803F48023002B18D08C
:1024C0007B681B681B6803F40023002B08D17B6822
:1024D0001B6C002B24D07B681B6C786898471FE02E
:1024E0007B689B6C002B1BD07B689B6C7868984743
:1024F00016E07B681B681B6803F48073002B07D110
:102500007B681B681A687B681B6822F008021A60E7
:102510007B681B6C002B03D07B681B6C786898472A
:102520007B68DB6D20229A40FB681340002B00F093
:102530008F807B681B681B6803F01003002B00F082
:1025400087807B68DB6D20229A403B699A607B68BC
:1025500093F83530DBB2052B36D17B681B681A68DF
:102560007B681B6822F016021A607B681B685A6938
:102570007B681B6822F080025A617B681B6C002B11
:1025800003D17B689B6C002B07D07B681B681A68A3
:102590007B681B6822F008021A607B68DB6D3F22B3
:1025A0009A403B699A607B68012283F835207B68FA
:1025B000002283F834207B681B6D002B7ED07B6863
:1025C0001B6D7868984779E07B681B681B6803F48B
:1025D0008023002B1DD07B681B681B6803F400233D
:1025E000002B0DD17B685B6C002B31D07B685B6C62
:1025F000786898472CE000BF00000020B5814E1B92
:102600007B68DB6B002B23D07B68DB6B786898479B
:102610001EE07B681B681B6803F48073002B0FD1DE
:102620007B681B681A687B681B6822F010021A60BE
:102630007B68012283F835207B68002283F83420F0
:102640007B68DB6B002B03D07B68DB6B786898477B
:102650007B685B6D002B32D07B685B6D03F0010300
:10266000002B22D07B68052283F835207B681B680D
:102670001A687B681B6822F001021A60BB6801338C
:10268000BB607A699A4207D37B681B681B6803F0BA
:102690000103002BF2D100E000BF7B68012283F828
:1026A00035207B68002283F834207B68DB6C002BAC
:1026B00005D07B68DB6C7868984700E000BF18376E
:1026C000BD4680BD80B485B000AFF860B9607A6067
:1026D0003B60FB681B681A68FB681B6822F4802259
:1026E0001A60FB681B683A685A60FB689B68402B5D
:1026F00008D1FB681B687A689A60FB681B68BA6837
:10270000DA6007E0FB681B68BA689A60FB681B68C0
:102710007A68DA6000BF1437BD465DF8047B704705
:1027200080B485B000AF78607B681B68DBB2103B7B
:10273000144AA2FB03231B09FB60134AFB681344E2
:102740001B781A467B68DA65FB68032B09D97B681E
:102750001B6823F47F7323F003031A1D7B689A65BB
:1027600007E07B681B6823F47F7323F003037A6818
:1027700093657B689B6D18461437BD465DF8047BF6
:10278000704700BFABAAAAAA60D2000880B485B087
:1027900000AF78600023FB737B689B6ABB607B683B
:1027A0009B69002B1FD1BB68032B56D801A252F89E
:1027B00023F000BFC5270008D7270008C527000859
:1027C0005B2800087B68DB6A03F08073002B46D02F
:1027D0000123FB7343E07B68DB6AB3F1C07F40D128
:1027E0000123FB733DE07B689B69B3F5005F21D15A
:1027F000BB68032B37D801A252F823F00D2800083C
:10280000132800080D280008252800080123FB7361
:1028100030E07B68DB6A03F08073002B25D0012356
:10282000FB7322E07B68DB6AB3F1C07F1FD1012319
:10283000FB731CE0BB68022B03D9BB68032B03D0DE
:1028400018E00123FB7315E07B68DB6A03F08073FB
:10285000002B0ED00123FB730BE000BF0AE000BF8A
:1028600008E000BF06E000BF04E000BF02E000BFD8
:1028700000E000BFFB7B18461437BD465DF8047BC3
:10288000704700BF80B489B000AF78603960002322
:102890007B6100233B610023BB610023FB6159E1A5
:1028A0000122FB6902FA03F37B613B681B687A69CA
:1028B00013403B613A697B699A4240F048813B682A
:1028C0005B6803F00303012B05D03B685B6803F0F2
:1028D0000303022B30D17B689B68BB61FB695B0003
:1028E000032202FA03F3DB43BA691340BB613B687E
:1028F000DA68FB695B0002FA03F3BA691343BB6150
:102900007B68BA699A607B685B68BB610122FB697E
:1029100002FA03F3DB43BA691340BB613B685B68AF
:102920001B0903F00102FB6902FA03F3BA691343BE
:10293000BB617B68BA695A603B685B6803F003035C
:10294000032B17D07B68DB68BB61FB695B0003224C
:1029500002FA03F3DB43BA691340BB613B689A6830
:10296000FB695B0002FA03F3BA691343BB617B683E
:10297000BA69DA603B685B6803F00303022B23D17A
:10298000FB69DA087B68083253F82230BB61FB69C7
:1029900003F007039B000F2202FA03F3DB43BA693B
:1029A0001340BB613B681A69FB6903F007039B0096
:1029B00002FA03F3BA691343BB61FB69DA087B6867
:1029C0000832B96943F822107B681B68BB61FB6958
:1029D0005B00032202FA03F3DB43BA691340BB61D5
:1029E0003B685B6803F00302FB695B0002FA03F3D8
:1029F000BA691343BB617B68BA691A603B685B685C
:102A000003F44033002B00F0A2800023FB60574BFF
:102A10005B6C564A43F480435364544B5B6C03F441
:102A20008043FB60FB68524AFB699B08023352F803
:102A30002330BB61FB6903F003039B000F2202FA02
:102A400003F3DB43BA691340BB617B68494A934295
:102A500019D07B68484A934213D07B68474A934217
:102A60000DD07B68464A934207D07B68454A934223
:102A700001D1042308E0072306E0032304E0022336
:102A800002E0012300E00023FA6902F00302920051
:102A90009340BA691343BB613549FB699B08023314
:102AA000BA6941F82320384B9B68BB613B69DB4323
:102AB000BA691340BB613B685B6803F48013002B69
:102AC00003D0BA693B691343BB612F4ABB6993606A
:102AD0002D4BDB68BB613B69DB43BA691340BB61CB
:102AE0003B685B6803F40013002B03D0BA693B69B1
:102AF0001343BB61244ABB69D360234B5B68BB6152
:102B00003B69DB43BA691340BB613B685B6803F414
:102B10000033002B03D0BA693B691343BB611A4AE7
:102B2000BB695360184B1B68BB613B69DB43BA69E7
:102B30001340BB613B685B6803F48033002B03D018
:102B4000BA693B691343BB610F4ABB691360FB69F8
:102B50000133FB61FB690F2B7FF6A2AE00BF00BF04
:102B60002437BD465DF8047B704700BF0038024043
:102B7000003801400000024000040240000802400A
:102B8000000C024000100240003C014080B483B0C1
:102B900000AF78600B467B8013467B707B78002B00
:102BA00003D07A887B689A6103E07B881A047B688B
:102BB0009A6100BF0C37BD465DF8047B704780B456
:102BC00085B000AF78600B467B807B685B69FB60FB
:102BD0007A88FB6813401A04FB68D9437B880B4052
:102BE0001A437B689A6100BF1437BD465DF8047BC9
:102BF0007047000080B582B000AF0346FB80084BF1
:102C00005A69FB881340002B06D0054AFB885361A4
:102C1000FB88184606F0E8FB00BF0837BD4680BDBC
:102C2000003C014080B586B000AF78607B68002B27
:102C300001D1012367E27B681B6803F00103002BCD
:102C400075D0884B9B6803F00C03042B0CD0854B8C
:102C50009B6803F00C03082B12D1824B5B6803F4D2
:102C60008003B3F5800F0BD17E4B1B6803F4003358
:102C7000002B5BD07B685B68002B57D1012342E2BD
:102C80007B685B68B3F5803F06D1764B1B68754A5D
:102C900043F4803313601DE07B685B68B3F5A02FBD
:102CA0000CD1704B1B686F4A43F4802313606D4B4B
:102CB0001B686C4A43F4803313600BE0694B1B685C
:102CC000684A23F480331360664B1B68654A23F41B
:102CD000802313607B685B68002B13D0FFF752F9E9
:102CE000386108E0FFF74EF902463B69D31A642BBE
:102CF00001D9032307E25B4B1B6803F40033002B6D
:102D0000F0D014E0FFF73EF9386108E0FFF73AF938
:102D100002463B69D31A642B01D90323F3E1514BDB
:102D20001B6803F40033002BF0D100E000BF7B6888
:102D30001B6803F00203002B63D04A4B9B6803F02F
:102D40000C03002B0BD0474B9B6803F00C03082BA4
:102D50001CD1444B5B6803F48003002B16D1414B1C
:102D60001B6803F00203002B05D07B68DB68012B96
:102D700001D00123C7E13B4B1B6823F0F8027B68BD
:102D80001B69DB00374913430B603AE07B68DB6863
:102D9000002B20D0344B01221A60FFF7F3F8386182
:102DA00008E0FFF7EFF802463B69D31A022B01D97E
:102DB0000323A8E12B4B1B6803F00203002BF0D088
:102DC000284B1B6823F0F8027B681B69DB00254950
:102DD00013430B6015E0244B00221A60FFF7D2F872
:102DE000386108E0FFF7CEF802463B69D31A022BA0
:102DF00001D9032387E11B4B1B6803F00203002B5F
:102E0000F0D17B681B6803F00803002B36D07B6889
:102E10005B69002B16D0154B01221A60FFF7B2F840
:102E2000386108E0FFF7AEF802463B69D31A022B7F
:102E300001D9032367E10B4B5B6F03F00203002B07
:102E4000F0D01BE0094B00221A60FFF79BF83861B5
:102E50000EE0FFF797F802463B69D31A022B07D919
:102E6000032350E10038024000004742800E4742F1
:102E7000884B5B6F03F00203002BEAD17B681B6871
:102E800003F00403002B00F097800023FB75814BB7
:102E90001B6C03F08053002B0FD10023BB607D4BD4
:102EA0001B6C7C4A43F0805313647A4B1B6C03F019
:102EB0008053BB60BB680123FB75774B1B6803F431
:102EC0008073002B18D1744B1B68734A43F48073D2
:102ED0001360FFF757F8386108E0FFF753F8024630
:102EE0003B69D31A022B01D903230CE16A4B1B68FF
:102EF00003F48073002BF0D07B689B68012B06D114
:102F0000644B1B6F634A43F0010313671CE07B684B
:102F10009B68052B0CD15F4B1B6F5E4A43F004038B
:102F200013675C4B1B6F5B4A43F0010313670BE0B5
:102F3000584B1B6F574A23F001031367554B1B6F08
:102F4000544A23F0040313677B689B68002B15D059
:102F5000FFF718F838610AE0FFF714F802463B69FA
:102F6000D31A41F28832934201D90323CBE0494B73
:102F70001B6F03F00203002BEED014E0FFF702F802
:102F800038610AE0FEF7FEFF02463B69D31A41F2C0
:102F90008832934201D90323B5E03E4B1B6F03F007
:102FA0000203002BEED1FB7D012B05D1394B1B6CAD
:102FB000384A23F0805313647B689B69002B00F030
:102FC000A180344B9B6803F00C03082B5CD07B681A
:102FD0009B69022B41D1314B00221A60FEF7D2FFD0
:102FE000386108E0FEF7CEFF02463B69D31A022B98
:102FF00001D9032387E0274B1B6803F00073002BE4
:10300000F0D17B68DA697B681B6A1A437B685B6A6C
:103010009B011A437B689B6A5B08013B1B041A43B4
:103020007B68DB6A1B061B4913434B601B4B012269
:103030001A60FEF7A7FF386108E0FEF7A3FF02461B
:103040003B69D31A022B01D903235CE0114B1B68A7
:1030500003F00073002BF0D054E0104B00221A60F4
:10306000FEF790FF386108E0FEF78CFF02463B69EF
:10307000D31A022B01D9032345E0064B1B6803F04A
:103080000073002BF0D13DE07B689B69012B07D1D9
:10309000012338E0003802400070004060004742E1
:1030A0001B4B5B68FB607B689B69012B28D0FB682E
:1030B00003F480027B68DB699A4221D1FB6803F04C
:1030C0003F027B681B6A9A421AD1FA6847F6C073BE
:1030D00013407A68526A9201934211D1FB6803F45B
:1030E00040327B689B6A5B08013B1B049A4207D114
:1030F000FB6803F070627B68DB6A1B069A4201D0B2
:10310000012300E0002318461837BD4680BD00BFEC
:103110000038024080B584B000AF786039607B68C9
:10312000002B01D10123CCE0684B1B6803F007039F
:103130003A689A420CD9654B3A68D2B21A70634B1E
:103140001B6803F007033A689A4201D00123B8E0F4
:103150007B681B6803F00203002B20D07B681B6890
:1031600003F00403002B05D0594B9B68584A43F4E5
:10317000E05393607B681B6803F00803002B05D0C5
:10318000534B9B68524A43F460439360504B9B6897
:1031900023F0F0027B689B684D4913438B607B688A
:1031A0001B6803F00103002B44D07B685B68012B94
:1031B00007D1474B1B6803F40033002B19D10123BF
:1031C0007FE07B685B68022B03D07B685B68032B26
:1031D00007D13F4B1B6803F00073002B09D101237B
:1031E0006FE03B4B1B6803F00203002B01D101236E
:1031F00067E0374B9B6823F003027B685B683449C8
:1032000013438B60FEF7BEFEF8600AE0FEF7BAFEDD
:103210000246FB68D31A41F28832934201D9032354
:103220004FE02B4B9B6803F00C027B685B689B00B4
:103230009A42EBD1254B1B6803F007033A689A4288
:103240000CD2224B3A68D2B21A70204B1B6803F0A2
:1032500007033A689A4201D0012332E07B681B6879
:1032600003F00403002B08D0194B9B6823F4E052B1
:103270007B68DB68164913438B607B681B6803F02F
:103280000803002B09D0124B9B6823F460427B6833
:103290001B69DB000E4913438B6000F021F80246E6
:1032A0000B4B9B681B0903F00F030A49CB5C22FA06
:1032B00003F3094A1360094B1B681846FEF7ECF844
:1032C000002318461037BD4680BD00BF003C0240B9
:1032D0000038024048D2000800000020040000200E
:1032E0002DE9B04F90B000AF00237B630023FB6358
:1032F00000233B630023BB63594B9B6803F00C0323
:10330000082B0DD0082B00F2A180002B02D0042B3B
:1033100003D09BE0534BBB639BE0534BBB6398E0F4
:103320004F4B5B6803F03F037B634D4B5B6803F4DB
:103330008003002B28D04A4B5B689B0900223B622C
:103340007A623B6AC3F308000021474B03FB01F29A
:10335000002300FB03F31344434AA0FB0212FA626A
:103360000A46BA62FA6A1344FB627B6B0022BB61B5
:10337000FA61D7E90623D7E90A01FDF75DFC0246A9
:103380000B461346FB6353E0354B5B689B090022F9
:103390003B617A613B69C3F3080A4FF0000B524668
:1033A0005B464FF000004FF00001590141EAD26145
:1033B000500102460B46B2EB0A0863EB0B094FF0D3
:1033C00000024FF000034FEA891343EA98634FEA83
:1033D0008812B2EB080463EB09054FF000024FF0CE
:1033E0000003EB0043EA5473E20014461D4614EB5D
:1033F0000A033B6045EB0B037B604FF000024FF08C
:103400000003D7E9004529468B02214643EA915340
:1034100021468A02104619467B6B0022BB60FA6087
:10342000D7E90223FDF708FC02460B461346FB636F
:103430000B4B5B681B0C03F0030301335B003B6326
:10344000FA6B3B6BB2FBF3F3BB6302E0054BBB6370
:1034500000BFBB6B18464037BD46BDE8B08F00BF0C
:10346000003802400024F40040787D0180B400AFB1
:10347000034B1B681846BD465DF8047B704700BFD0
:103480000000002080B500AFFFF7F0FF0246054BBB
:103490009B689B0A03F007030349CB5C22FA03F302
:1034A000184680BD0038024058D2000880B500AFF1
:1034B000FFF7DCFF0246054B9B685B0B03F007033D
:1034C0000349CB5C22FA03F3184680BD0038024062
:1034D00058D2000880B483B000AF786039607B6850
:1034E0000F221A60124B9B6803F003027B685A603C
:1034F0000F4B9B6803F0F0027B689A600C4B9B6853
:1035000003F4E0527B68DA60094B9B68DB0803F444
:10351000E0527B681A61074B1B6803F007023B68A7
:103520001A6000BF0C37BD465DF8047B704700BFD2
:1035300000380240003C024080B582B000AF7860A5
:103540007B68002B01D1012341E07B6893F83D307B
:10355000DBB2002B06D17B68002283F83C20786820
:10356000FEF7BAFA7B68022283F83D207B681A686E
:103570007B6804331946104600F0E6FF7B680122A1
:1035800083F846207B68012283F83E207B68012275
:1035900083F83F207B68012283F840207B6801226A
:1035A00083F841207B68012283F842207B68012256
:1035B00083F843207B68012283F844207B68012242
:1035C00083F845207B68012283F83D2000231846BC
:1035D0000837BD4680BD000080B485B000AF78607C
:1035E0007B6893F83D30DBB2012B01D001233CE036
:1035F0007B68022283F83D207B681B681E4A934249
:1036000018D07B681B68B3F1804F13D07B681B68B0
:103610001A4A93420ED07B681B68194A934209D01C
:103620007B681B68174A934204D07B681B68164A64
:10363000934211D17B681B689B6803F00703FB6012
:10364000FB68062B10D07B681B681A687B681B68B8
:1036500042F001021A6007E07B681B681A687B6809
:103660001B6842F001021A60002318461437BD4659
:103670005DF8047B704700BF00000140000400407B
:1036800000080040000C00400040014080B485B0BC
:1036900000AF78607B6893F83D30DBB2012B01D03E
:1036A000012344E07B68022283F83D207B681B688D
:1036B000DA687B681B6842F00102DA607B681B688D
:1036C0001E4A934218D07B681B68B3F1804F13D019
:1036D0007B681B681A4A93420ED07B681B68194AA4
:1036E000934209D07B681B68174A934204D07B68D9
:1036F0001B68164A934211D17B681B689B6803F0D4
:103700000703FB60FB68062B10D07B681B681A68F8
:103710007B681B6842F001021A6007E07B681B6847
:103720001A687B681B6842F001021A600023184681
:103730001437BD465DF8047B704700BF00000140B0
:103740000004004000080040000C00400040014020
:1037500080B582B000AF78607B68002B01D1012377
:1037600041E07B6893F83D30DBB2002B06D17B68EB
:10377000002283F83C207868FEF778F97B68022203
:1037800083F83D207B681A687B680433194610462D
:1037900000F0DAFE7B68012283F846207B68012274
:1037A00083F83E207B68012283F83F207B6801225A
:1037B00083F840207B68012283F841207B68012246
:1037C00083F842207B68012283F843207B68012232
:1037D00083F844207B68012283F845207B6801221E
:1037E00083F83D20002318460837BD4680BD000001
:1037F00080B584B000AF786039603B68002B09D198
:103800007B6893F83E30DBB2012B14BF0123002309
:10381000DBB222E03B68042B09D17B6893F83F3090
:10382000DBB2012B14BF01230023DBB215E03B68A0
:10383000082B09D17B6893F84030DBB2012B14BF11
:1038400001230023DBB208E07B6893F84130DBB250
:10385000012B14BF01230023DBB2002B01D0012375
:1038600068E03B68002B04D17B68022283F83E208D
:1038700013E03B68042B04D17B68022283F83F20CD
:103880000BE03B68082B04D17B68022283F84020C0
:1038900003E07B68022283F841207B681B680122D9
:1038A0003968184601F0FCF87B681B68234A93428C
:1038B00007D17B681B685A6C7B681B6842F4004226
:1038C0005A647B681B681D4A934218D07B681B684A
:1038D000B3F1804F13D07B681B68194A93420ED016
:1038E0007B681B68174A934209D07B681B68164A9D
:1038F000934204D07B681B68144A934211D17B68C1
:103900001B689B6803F00703FB60FB68062B10D065
:103910007B681B681A687B681B6842F001021A60AA
:1039200007E07B681B681A687B681B6842F001022D
:103930001A60002318461037BD4680BD00000140C4
:103940000004004000080040000C0040004001401E
:1039500080B586B000AFF860B9607A607B800023E4
:10396000FB75BB68002B09D1FB6893F83E30DBB2D6
:10397000022B0CBF01230023DBB222E0BB68042B27
:1039800009D1FB6893F83F30DBB2022B0CBF012357
:103990000023DBB215E0BB68082B09D1FB6893F864
:1039A0004030DBB2022B0CBF01230023DBB208E066
:1039B000FB6893F84130DBB2022B0CBF01230023DC
:1039C000DBB2002B01D002235DE1BB68002B09D1E3
:1039D000FB6893F83E30DBB2012B0CBF01230023C0
:1039E000DBB222E0BB68042B09D1FB6893F83F30BF
:1039F000DBB2012B0CBF01230023DBB215E0BB6857
:103A0000082B09D1FB6893F84030DBB2012B0CBFC7
:103A100001230023DBB208E0FB6893F84130DBB2FE
:103A2000012B0CBF01230023DBB2002B24D07B68C9
:103A3000002B02D07B88002B01D1012323E1BB683E
:103A4000002B04D1FB68022283F83E2016E0BB68FD
:103A5000042B04D1FB68022283F83F200EE0BB68F0
:103A6000082B04D1FB68022283F8402006E0FB68A3
:103A7000022283F8412001E0012304E1BB680C2B02
:103A800000F2AE8001A252F823F000BFC13A000854
:103A9000E13B0008E13B0008E13B0008093B00086E
:103AA000E13B0008E13B0008E13B0008513B000816
:103AB000E13B0008E13B0008E13B0008993B0008BE
:103AC000FB685B6A724ADA63FB685B6A714A1A6474
:103AD000FB685B6A704ADA64FB68586A7968FB685D
:103AE0001B6834331A467B88FEF7E8FB0346002B3D
:103AF00001D00123C7E0FB681B68DA68FB681B681C
:103B000042F40072DA606EE0FB689B6A604ADA6336
:103B1000FB689B6A5F4A1A64FB689B6A5E4ADA64C8
:103B2000FB68986A7968FB681B6838331A467B889B
:103B3000FEF7C4FB0346002B01D00123A3E0FB6882
:103B40001B68DA68FB681B6842F48062DA604AE04E
:103B5000FB68DB6A4E4ADA63FB68DB6A4D4A1A642B
:103B6000FB68DB6A4C4ADA64FB68D86A7968FB68F0
:103B70001B683C331A467B88FEF7A0FB0346002BEC
:103B800001D001237FE0FB681B68DA68FB681B68D3
:103B900042F40062DA6026E0FB681B6B3C4ADA63A1
:103BA000FB681B6B3B4A1A64FB681B6B3A4ADA647E
:103BB000FB68186B7968FB681B6840331A467B8882
:103BC000FEF77CFB0346002B01D001235BE0FB6882
:103BD0001B68DA68FB681B6842F48052DA6002E016
:103BE0000123FB7500BFFB7D002B4BD1FB681B68DD
:103BF0000122B968184600F053FFFB681B68274A8A
:103C0000934207D1FB681B685A6CFB681B6842F43F
:103C100000425A64FB681B68204A934218D0FB6834
:103C20001B68B3F1804F13D0FB681B681C4A93429A
:103C30000ED0FB681B681B4A934209D0FB681B68C7
:103C4000194A934204D0FB681B68184A934211D169
:103C5000FB681B689B6803F007033B613B69062B0D
:103C600010D0FB681B681A68FB681B6842F00102F1
:103C70001A6007E0FB681B681A68FB681B6842F063
:103C800001021A60FB7D18461837BD4680BD00BF93
:103C900039440008E1440008A7430008000001403F
:103CA0000004004000080040000C004000400140BB
:103CB00080B584B000AF786039600023FB733B6847
:103CC0000C2B55D801A252F823F000BF013D00088B
:103CD000713D0008713D0008713D00081D3D000860
:103CE000713D0008713D0008713D0008393D000834
:103CF000713D0008713D0008713D0008553D000808
:103D00007B681B68DA687B681B6822F40072DA60E3
:103D10007B685B6A1846FEF729FB2CE07B681B6812
:103D2000DA687B681B6822F48062DA607B689B6AD1
:103D30001846FEF71BFB1EE07B681B68DA687B6891
:103D40001B6822F40062DA607B68DB6A1846FEF7C3
:103D50000DFB10E07B681B68DA687B681B6822F447
:103D60008052DA607B681B6B1846FEF7FFFA02E0B0
:103D70000123FB7300BFFB7B002B57D17B681B68C3
:103D800000223968184600F08BFE7B681B682A4ABF
:103D9000934217D17B681B681A6A41F211131340D2
:103DA000002B0FD17B681B681A6A40F24443134012
:103DB000002B07D17B681B685A6C7B681B6822F458
:103DC00000425A647B681B681A6A41F2111313405F
:103DD000002B0FD17B681B681A6A40F244431340E2
:103DE000002B07D17B681B681A687B681B6822F070
:103DF00001021A603B68002B04D17B68012283F822
:103E00003E2013E03B68042B04D17B68012283F839
:103E10003F200BE03B68082B04D17B68012283F82C
:103E2000402003E07B68012283F84120FB7B184699
:103E30001037BD4680BD00BF0000014080B584B092
:103E400000AF78607B681B68DB68FB607B681B6881
:103E50001B69BB60BB6803F00203002B20D0FB682A
:103E600003F00203002B1BD07B681B686FF002027B
:103E70001A617B6801221A777B681B689B6903F0D3
:103E80000303002B03D0786800F05BFA05E0786844
:103E900000F04DFA786800F05EFA7B6800221A772D
:103EA000BB6803F00403002B20D0FB6803F004037D
:103EB000002B1BD07B681B686FF004021A617B68C3
:103EC00002221A777B681B689B6903F44073002BFE
:103ED00003D0786800F035FA05E0786800F027FA3A
:103EE000786800F038FA7B6800221A77BB6803F024
:103EF0000803002B20D0FB6803F00803002B1BD025
:103F00007B681B686FF008021A617B6804221A77CD
:103F10007B681B68DB6903F00303002B03D0786820
:103F200000F00FFA05E0786800F001FA786800F018
:103F300012FA7B6800221A77BB6803F01003002B8B
:103F400020D0FB6803F01003002B1BD07B681B689C
:103F50006FF010021A617B6808221A777B681B6871
:103F6000DB6903F44073002B03D0786800F0E9F9B3
:103F700005E0786800F0DBF9786800F0ECF97B6820
:103F800000221A77BB6803F00103002B0CD0FB68FA
:103F900003F00103002B07D07B681B686FF0010260
:103FA0001A617868FDF734FABB6803F08003002BD0
:103FB0000CD0FB6803F08003002B07D07B681B68E4
:103FC0006FF080021A61786800F008FEBB6803F0A9
:103FD0004003002B0CD0FB6803F04003002B07D0FC
:103FE0007B681B686FF040021A61786800F0C7F9BF
:103FF000BB6803F02003002B0CD0FB6803F0200308
:10400000002B07D07B681B686FF020021A6178686C
:1040100000F0DAFD00BF1037BD4680BD80B586B028
:1040200000AFF860B9607A600023FB75FB6893F815
:104030003C30012B01D10223AEE0FB68012283F862
:104040003C207B680C2B00F29F8001A252F823F0E9
:10405000854000088941000889410008894100081D
:10406000C5400008894100088941000889410008CD
:10407000074100088941000889410008894100087A
:1040800047410008FB681B68B968184600F0E2FA6F
:10409000FB681B689A69FB681B6842F008029A611A
:1040A000FB681B689A69FB681B6822F004029A612E
:1040B000FB681B689969BB681A69FB681B680A433F
:1040C0009A6164E0FB681B68B968184600F028FB39
:1040D000FB681B689A69FB681B6842F400629A617E
:1040E000FB681B689A69FB681B6822F480629A610E
:1040F000FB681B689969BB681B691A02FB681B682F
:104100000A439A6143E0FB681B68B968184600F0EF
:1041100073FBFB681B68DA69FB681B6842F00802E6
:10412000DA61FB681B68DA69FB681B6822F004022D
:10413000DA61FB681B68D969BB681A69FB681B6890
:104140000A43DA6123E0FB681B68B968184600F08F
:10415000BDFBFB681B68DA69FB681B6842F4006200
:10416000DA61FB681B68DA69FB681B6822F480620D
:10417000DA61FB681B68D969BB681B691A02FB68B6
:104180001B680A43DA6102E00123FB7500BFFB688C
:10419000002283F83C20FB7D18461837BD4680BDC1
:1041A00080B584B000AF786039600023FB737B6812
:1041B00093F83C30012B01D10223B4E07B6801224B
:1041C00083F83C207B68022283F83D207B681B68D3
:1041D0009B68BB60BB6823F07703BB60BB6823F4BC
:1041E0007F43BB607B681B68BA689A603B681B684A
:1041F000B3F5005F3ED0B3F5005F00F28780B3F502
:10420000805F00F08680B3F5805F7FD8702B1AD076
:10421000702B7BD8602B50D0602B77D8502B3CD0A4
:10422000502B73D8402B58D0402B6FD8302B64D0F4
:10423000302B6BD8202B60D0202B67D8002B5CD084
:10424000102B5AD062E07B6818683B6899683B681D
:104250005A683B68DB6800F003FC7B681B689B685E
:10426000BB60BB6843F07703BB607B681B68BA68C0
:104270009A604FE07B6818683B6899683B685A68A9
:104280003B68DB6800F0ECFB7B681B689A687B6826
:104290001B6842F480429A603CE07B6818683B6887
:1042A00059683B68DB681A4600F060FB7B681B6856
:1042B0005021184600F0B9FB2CE07B6818683B6879
:1042C00059683B68DB681A4600F07FFB7B681B6817
:1042D0006021184600F0A9FB1CE07B6818683B6869
:1042E00059683B68DB681A4600F040FB7B681B6836
:1042F0004021184600F099FB0CE07B681A683B6887
:104300001B681946104600F090FB03E00123FB7385
:1043100000E000BF7B68012283F83D207B6800221B
:1043200083F83C20FB7B18461037BD4680BD80B427
:1043300083B000AF786000BF0C37BD465DF8047BEA
:10434000704780B483B000AF786000BF0C37BD46C3
:104350005DF8047B704780B483B000AF786000BF25
:104360000C37BD465DF8047B704780B483B000AF66
:10437000786000BF0C37BD465DF8047B704780B4A1
:1043800083B000AF786000BF0C37BD465DF8047B9A
:10439000704780B483B000AF786000BF0C37BD4673
:1043A0005DF8047B704780B584B000AF78607B68AF
:1043B0009B6BFB60FB685B6A7A689A4207D1FB687B
:1043C00001221A77FB68012283F83E202AE0FB686D
:1043D0009B6A7A689A4207D1FB6802221A77FB68C7
:1043E000012283F83F201DE0FB68DB6A7A689A426D
:1043F00007D1FB6804221A77FB68012283F840206A
:1044000010E0FB681B6B7A689A4207D1FB680822B0
:104410001A77FB68012283F8412003E0FB68012240
:1044200083F83D20F868FFF7B4FFFB6800221A7795
:1044300000BF1037BD4680BD80B584B000AF786046
:104440007B689B6BFB60FB685B6A7A689A420BD166
:10445000FB6801221A777B68DB69002B36D1FB6889
:10446000012283F83E2031E0FB689B6A7A689A4219
:104470000BD1FB6802221A777B68DB69002B25D100
:10448000FB68012283F83F2020E0FB68DB6A7A6842
:104490009A420BD1FB6804221A777B68DB69002BF8
:1044A00014D1FB68012283F840200FE0FB681B6BEE
:1044B0007A689A420AD1FB6808221A777B68DB691E
:1044C000002B03D1FB68012283F84120F868FFF735
:1044D00042FFFB6800221A7700BF1037BD4680BD3F
:1044E00080B584B000AF78607B689B6BFB60FB6835
:1044F0005B6A7A689A4203D1FB6801221A7719E055
:10450000FB689B6A7A689A4203D1FB6802221A7799
:1045100010E0FB68DB6A7A689A4203D1FB680422E8
:104520001A7707E0FB681B6B7A689A4202D1FB6836
:1045300008221A77F868FFF718FFFB6800221A773D
:1045400000BF1037BD4680BD80B485B000AF786035
:1045500039607B681B68FB607B68374A93420FD0E9
:104560007B68B3F1804F0BD07B68344A934207D00D
:104570007B68334A934203D07B68324A934208D126
:10458000FB6823F07003FB603B685B68FA681343C9
:10459000FB607B68284A93421BD07B68B3F1804F55
:1045A00017D07B68254A934213D07B68244A9342F4
:1045B0000FD07B68234A93420BD07B68224A9342F8
:1045C00007D07B68214A934203D07B68204A9342FC
:1045D00008D1FB6823F44073FB603B68DB68FA6832
:1045E0001343FB60FB6823F080023B685B69134365
:1045F000FB603B689A687B68DA623B681A687B6894
:104600009A627B680C4A934203D13B681A697B68C3
:104610001A637B681B6843F004027B681A607B683E
:1046200001225A617B68FA681A6000BF1437BD46E0
:104630005DF8047B704700BF0000014000040040AB
:1046400000080040000C00400040014000440140D0
:104650000048014080B487B000AF786039607B6863
:104660001B6A7B617B681B6A23F001027B681A620C
:104670007B685B683B617B689B69FB60FB6823F040
:104680007003FB60FB6823F00303FB603B681B685F
:10469000FA681343FB607B6923F002037B613B688C
:1046A0009B687A6913437B617B681C4A93420CD1F7
:1046B0007B6923F008037B613B68DB687A691343FD
:1046C0007B617B6923F004037B617B68134A93421F
:1046D00011D13B6923F480733B613B6923F4007380
:1046E0003B613B685B693A6913433B613B689B698B
:1046F0003A6913433B617B683A695A607B68FA68A0
:104700009A613B685A687B685A637B687A691A6267
:1047100000BF1C37BD465DF8047B704700000140B8
:1047200080B487B000AF786039607B681B6A7B61BA
:104730007B681B6A23F010027B681A627B685B68E7
:104740003B617B689B69FB60FB6823F4E043FB6093
:10475000FB6823F44073FB603B681B681B02FA682C
:104760001343FB607B6923F020037B613B689B68FC
:104770001B017A6913437B617B681E4A93420DD10A
:104780007B6923F080037B613B68DB681B017A69EE
:1047900013437B617B6923F040037B617B68154A8F
:1047A000934213D13B6923F480633B613B6923F45B
:1047B00000633B613B685B699B003A6913433B6163
:1047C0003B689B699B003A6913433B617B683A698C
:1047D0005A607B68FA689A613B685A687B689A639A
:1047E0007B687A691A6200BF1C37BD465DF8047B9E
:1047F000704700BF0000014080B487B000AF786010
:1048000039607B681B6A7B617B681B6A23F480725A
:104810007B681A627B685B683B617B68DB69FB6075
:10482000FB6823F07003FB60FB6823F00303FB606D
:104830003B681B68FA681343FB607B6923F40073D1
:104840007B613B689B681B027A6913437B617B68D1
:104850001D4A93420DD17B6923F400637B613B6861
:10486000DB681B027A6913437B617B6923F48063F5
:104870007B617B68144A934213D13B6923F48053D4
:104880003B613B6923F400533B613B685B691B015F
:104890003A6913433B613B689B691B013A691343C7
:1048A0003B617B683A695A607B68FA68DA613B6809
:1048B0005A687B68DA637B687A691A6200BF1C37C2
:1048C000BD465DF8047B70470000014080B487B0AE
:1048D00000AF786039607B681B6A3B617B681B6A4C
:1048E00023F480527B681A627B685B687B617B681B
:1048F000DB69FB60FB6823F4E043FB60FB6823F4A7
:104900004073FB603B681B681B02FA681343FB6043
:104910003B6923F400533B613B689B681B033A6986
:1049200013433B617B68104A934209D17B6923F4AE
:1049300080437B613B685B699B017A6913437B61C0
:104940007B687A695A607B68FA68DA613B685A6802
:104950007B681A647B683A691A6200BF1C37BD46DF
:104960005DF8047B704700BF0000014080B487B051
:1049700000AFF860B9607A60FB681B6A7B61FB6816
:104980001B6A23F00102FB681A62FB689B693B61AA
:104990003B6923F0F0033B617B681B013A691343D9
:1049A0003B617B6923F00A037B617A69BB6813432F
:1049B0007B61FB683A699A61FB687A691A6200BF99
:1049C0001C37BD465DF8047B704780B487B000AFEC
:1049D000F860B9607A60FB681B6A7B61FB681B6AE0
:1049E00023F01002FB681A62FB689B693B613B691C
:1049F00023F470433B617B681B033A6913433B61BB
:104A00007B6923F0A0037B61BB681B017A691343B8
:104A10007B61FB683A699A61FB687A691A6200BF38
:104A20001C37BD465DF8047B704780B485B000AF8D
:104A3000786039607B689B68FB60FB6823F07003DB
:104A4000FB603A68FB68134343F00703FB607B6835
:104A5000FA689A6000BF1437BD465DF8047B704762
:104A600080B487B000AFF860B9607A603B60FB68E3
:104A70009B687B617B6923F47F437B613B681A02FF
:104A80007B681A43BB6813437A6913437B61FB68F5
:104A90007A699A6000BF1C37BD465DF8047B704799
:104AA00080B487B000AFF860B9607A60BB6803F08B
:104AB0001F03012202FA03F37B61FB681A6A7B6918
:104AC000DB431A40FB681A62FB681A6ABB6803F092
:104AD0001F03796801FA03F31A43FB681A6200BFE7
:104AE0001C37BD465DF8047B7047000080B485B07C
:104AF00000AF786039607B6893F83C30012B01D1BE
:104B0000022350E07B68012283F83C207B6802226C
:104B100083F83D207B681B685B68FB607B681B68D3
:104B20009B68BB60FB6823F07003FB603B681B68FD
:104B3000FA681343FB607B681B68FA685A607B68FD
:104B40001B681C4A934218D07B681B68B3F1804FE6
:104B500013D07B681B68184A93420ED07B681B6891
:104B6000164A934209D07B681B68154A934204D0C9
:104B70007B681B68134A93420CD1BB6823F0800307
:104B8000BB603B685B68BA681343BB607B681B68AB
:104B9000BA689A607B68012283F83D207B68002216
:104BA00083F83C20002318461437BD465DF8047B8B
:104BB000704700BF000001400004004000080040B2
:104BC000000C00400040014080B483B000AF78602A
:104BD00000BF0C37BD465DF8047B704780B483B0DE
:104BE00000AF786000BF0C37BD465DF8047B7047AE
:104BF00080B582B000AF78607B68002B01D10123C3
:104C000042E07B6893F84130DBB2002B06D17B6831
:104C1000002283F840207868FDF7A4F87B682422FE
:104C200083F841207B681B68DA687B681B6822F484
:104C30000052DA60786800F067FC7B681B681A69CC
:104C40007B681B6822F490421A617B681B685A6972
:104C50007B681B6822F02A025A617B681B68DA684D
:104C60007B681B6842F40052DA607B6800225A6459
:104C70007B68202283F841207B68202283F8422031
:104C80007B6800225A63002318460837BD4680BD62
:104C900080B58AB002AFF860B9603B601346FB8014
:104CA00000237B61FB6893F84130DBB2202B75D188
:104CB000BB68002B02D0FB88002B01D101236EE0E2
:104CC000FB6800225A64FB68212283F84120FDF72B
:104CD00059F97861FB68FA889A84FB68FA88DA8463
:104CE000FB689B68B3F5805F08D1FB681B69002BEC
:104CF00004D10023FB61BB68BB6103E0BB68FB61BF
:104D00000023BB612EE03B6800937B690022802179
:104D1000F86800F06DFA0346002B05D0FB682022EE
:104D200083F8412003233AE0FB69002B0BD1BB69D8
:104D30001B881A46FB681B68C2F308025A60BB69ED
:104D40000233BB6107E0FB691A78FB681B685A6095
:104D5000FB690133FB61FB68DB8C9BB2013B9AB2C0
:104D6000FB68DA84FB68DB8C9BB2002BCBD13B6801
:104D700000937B6900224021F86800F039FA03466D
:104D8000002B05D0FB68202283F84120032306E096
:104D9000FB68202283F84120002300E0022318460C
:104DA0002037BD4680BD000080B58CB000AFF860F4
:104DB000B9601346FB80FB6893F84130DBB2202BCF
:104DC00062D1BB68002B02D0FB88002B01D10123EC
:104DD0005BE0BA68FB681A62FB68FA889A84FB6831
:104DE000FA88DA84FB6800225A64FB68212283F87F
:104DF0004120FB689B6B274ADA63FB689B6B264A62
:104E00001A64FB689B6B254ADA64FB689B6B002283
:104E10001A6507F10803FB62FB68986BFB6A196867
:104E2000FB681B6804331A46FB88FDF747FA034604
:104E3000002B08D0FB6810225A64FB68202283F8FC
:104E40004120012321E0FB681B686FF040021A60DB
:104E5000FB681B681433BB61BB6953E8003F7B618F
:104E60007B6943F08003BB62FB681B681433BA6A3A
:104E70007A623B62396A7A6A41E80023FB61FB6926
:104E8000002BE5D1002300E0022318463037BD4651
:104E900080BD00BF3F4F0008D94F00085D5100089A
:104EA00080B584B000AFF860B9601346FB80FB6842
:104EB00093F84230DBB2202B12D1BB68002B02D01A
:104EC000FB88002B01D101230BE0FB6800221A6351
:104ED000FB881A46B968F86800F0E4F9034600E078
:104EE000022318461037BD4680BD80B483B000AFA2
:104EF000786000BF0C37BD465DF8047B704780B416
:104F000083B000AF786000BF0C37BD465DF8047B0E
:104F1000704780B483B000AF786000BF0C37BD46E7
:104F20005DF8047B704780B483B000AF78600B46B7
:104F30007B8000BF0C37BD465DF8047B704780B5B1
:104F400090B000AF78607B689B6BFB637B681B68ED
:104F50001B6803F48073002B37D1FB6B0022DA84CB
:104F6000FB6B1B6814337B627B6A53E8003F3B6238
:104F70003B6A23F08003BB63FB6B1B681433BA6B83
:104F80003A63FB62F96A3A6B41E80023BB62BB6A91
:104F9000002BE5D1FB6B1B680C333B613B6953E88D
:104FA000003FFB60FB6843F040037B63FB6B1B68C7
:104FB0000C337A6BFA61BB61B969FA6941E8002385
:104FC0007B617B69002BE5D102E0F86B04F09AFD70
:104FD00000BF4037BD4680BD80B584B000AF78606B
:104FE0007B689B6BFB60F868FFF77FFF00BF1037A3
:104FF000BD4680BD80B59CB000AF78607B689B6B80
:10500000FB667B681B681B6803F48073002B72D1FE
:10501000FB6E0022DA85FB6E1B680C33FB64FB6CB5
:1050200053E8003FBB64BB6C23F48073BB66FB6E2C
:105030001B680C33BA6EBA657B65796DBA6D41E851
:1050400000233B653B6D002BE5D1FB6E1B681433E1
:10505000BB63BB6B53E8003F7B637B6B23F00103B7
:105060007B66FB6E1B6814337A6E7A643B64396C22
:105070007A6C41E80023FB63FB6B002BE5D1FB6EF0
:105080001B6814337B627B6A53E8003F3B623B6AD8
:1050900023F040033B66FB6E1B6814333A6E3A63A1
:1050A000FB62F96A3A6B41E80023BB62BB6A002BE2
:1050B000E5D1FB6E202283F84220FB6E1B6B012B97
:1050C00019D1FB6E1B680C333B613B6953E8003F11
:1050D000FB60FB6823F01003FB65FB6E1B680C3361
:1050E000FA6DFA61BB61B969FA6941E800237B6135
:1050F0007B69002BE5D1FB6E00225A63FB6E1B6BB4
:10510000012B06D1FB6E9B8D1946F86EFFF70BFF46
:1051100002E0F86EFFF7F3FE00BF7037BD4680BDBA
:1051200080B584B000AF78607B689B6BFB60FB68E8
:1051300001225A63FB681B6B012B08D1FB689B8D16
:105140005B089BB21946F868FFF7EDFE02E0F868CD
:10515000FFF7DFFE00BF1037BD4680BD80B584B0CD
:1051600000AF78600023FB607B689B6BBB60BB6813
:105170001B685B6903F08003802B0CBF01230023B5
:10518000DBB2FB60BB6893F84130DBB2212B08D166
:10519000FB68002B05D0BB680022DA84B86800F0F9
:1051A00027F9BB681B685B6903F04003402B0CBF09
:1051B00001230023DBB2FB60BB6893F84230DBB213
:1051C000222B08D1FB68002B05D0BB680022DA85B2
:1051D000B86800F035F9BB685B6C43F01002BB683F
:1051E0005A64B86804F0F0FC00BF1037BD4680BDBB
:1051F00080B586B000AFF860B9603B601346FB71C4
:105200003BE03B6AB3F1FF3F37D0FCF7BBFE024601
:105210003B68D31A3A6A9A4202D33B6A002B01D107
:1052200003233AE0FB681B68DB6803F00403002BF0
:1052300023D0BB68802B20D0BB68402B1DD0FB68DF
:105240001B681B6803F00803082B16D100237B6141
:10525000FB681B681B687B61FB681B685B687B6184
:105260007B69F86800F0ECF8FB6808225A64FB6878
:10527000002283F8402001230FE0FB681B681A68B6
:10528000BB681340BA689A420CBF01230023DBB20B
:105290001A46FB799A42B4D0002318461837BD4607
:1052A00080BD000080B598B000AFF860B9601346CB
:1052B000FB80BA68FB689A62FB68FA889A85FB688B
:1052C00000225A64FB68222283F84220FB68DB6BD1
:1052D000444ADA63FB68DB6B434A1A64FB68DB6BA6
:1052E000424ADA64FB68DB6B00221A6507F10803A7
:1052F000FB65FB68D86BFB681B6804331946FB6DC4
:105300001A68FB88FCF7DAFF0346002B08D0FB681D
:1053100010225A64FB68202283F8422001235DE0BA
:1053200000233B61FB681B681B683B61FB681B68D3
:105330005B683B613B69FB681B69002B19D0FB680C
:105340001B680C333B643B6C53E8003FFB63FB6B17
:1053500043F48073BB65FB681B680C33BA6DFA6459
:10536000BB64B96CFA6C41E800237B647B6C002B56
:10537000E5D1FB681B681433FB62FB6A53E8003F0E
:10538000BB62BB6A43F001037B65FB681B68143397
:105390007A6DBA637B63796BBA6B41E800233B6338
:1053A0003B6B002BE5D1FB681B681433BB61BB6909
:1053B00053E8003F7B617B6943F040033B65FB683A
:1053C0001B6814333A6D7A623B62396A7A6A41E843
:1053D0000023FB61FB69002BE5D1002318466037F1
:1053E000BD4680BDF54F0008215100085D51000801
:1053F00080B489B000AF78607B681B680C33FB60B9
:10540000FB6853E8003FBB60BB6823F0C003FB614F
:105410007B681B680C33FA69BA617B617969BA6988
:1054200041E800233B613B69002BE5D17B682022EA
:1054300083F8412000BF2437BD465DF8047B7047E8
:1054400080B495B000AF78607B681B680C337B63D9
:105450007B6B53E8003F3B633B6B23F49073FB642F
:105460007B681B680C33FA6C3A64FB63F96B3A6C2B
:1054700041E80023BB63BB6B002BE5D17B681B6855
:1054800014333B623B6A53E8003FFB61FB6923F046
:105490000103BB647B681B681433BA6CFA62BB629D
:1054A000B96AFA6A41E800237B627B6A002BE5D186
:1054B0007B681B6B012B19D17B681B680C33FB606D
:1054C000FB6853E8003FBB60BB6823F010037B64BC
:1054D0007B681B680C337A6CBA617B617969BA6945
:1054E00041E800233B613B69002BE5D17B6820222A
:1054F00083F842207B6800221A6300BF5437BD4600
:105500005DF8047B704700002DE9B04FC0B000AFDC
:10551000C7F8F400D7F8F4301B681B6923F4405037
:10552000D7F8F430D968D7F8F4301A6840EA0103A4
:105530001361D7F8F4309A68D7F8F4301B691A432E
:10554000D7F8F4305B691A43D7F8F430DB691343BA
:10555000C7F8F830D7F8F4301B68DB6823F416413D
:1055600021F00C01D7F8F4301A68D7F8F8300B4363
:10557000D360D7F8F4301B685B6923F44070D7F828
:10558000F4309969D7F8F4301A6840EA010353619E
:10559000D7F8F4301A688F4B9A4205D0D7F8F43018
:1055A0001A688D4B9A4204D1FDF780FFC7F8FC00C2
:1055B00003E0FDF767FFC7F8FC00D7F8F430DB69BC
:1055C000B3F5004F40F00C81D7F8FC300022C7F84B
:1055D000E830C7F8EC20D7E93A4522462B46911827
:1055E000B9655B41FB65D7E91623214612EB01083B
:1055F000294643EB01094FF000024FF000034FEA48
:10560000C90343EA58734FEAC802904699462346B5
:1056100018EB0303C7F8E0302B4649EB0303C7F848
:10562000E430D7F8F4305B680022C7F8D830C7F808
:10563000DC20D7E936120B46DB183B65134642EBFC
:1056400003037B65D7E91423D7E93801FBF7F4FAA4
:1056500002460B46614BA3FB02235B091C01D7F8F2
:10566000FC300022C7F8D030C7F8D420D7E93489FD
:1056700042464B469118B9645B41FB64D7E912235B
:10568000414612EB010A494643EB010B4FF0000281
:105690004FF000034FEACB0343EA5A734FEACA02C2
:1056A00092469B4643461AEB0303C7F8C8304B4665
:1056B0004BEB0303C7F8CC30D7F8F4305B6800221B
:1056C000C7F8C030C7F8C420D7E930120B46DB1842
:1056D0003B64134642EB03037B64D7E91023D7E90D
:1056E0003201FBF7A9FA02460B4611463B4BA3FBDE
:1056F00001235B09642202FB03F3CB1ADB0003F1F5
:105700003202364BA3FB02235B095B0003F4F87300
:105710001C44D7F8FC300022C7F8B830C7F8BC20CA
:10572000D7E92E8942464B469118B9635B41FB632A
:10573000D7E90E2341465118396349464B417B63F3
:105740004FF000024FF00003D7E90CAB5946CB00F5
:10575000514643EA51735146CA0010461946034662
:1057600042469B18C7F8B0304B460A4642EB03034B
:10577000C7F8B430D7F8F4305B680022C7F8A83017
:10578000C7F8AC20D7E92A120B46DB18BB621346D8
:1057900042EB0303FB62D7E90A23D7E92C01FBF7AD
:1057A0004BFA02460B460D4BA3FB02135B09642127
:1057B00001FB03F3D31ADB003233084AA2FB0323B5
:1057C0005B0903F00702D7F8F4301B6822449A60A3
:1057D00006E100BF00100140001401401F85EB519D
:1057E000D7F8FC300022C7F8A030C7F8A420D7E9CA
:1057F000288942464B46911839625B417B62D7E962
:10580000082341465418494643EB01054FF0000276
:105810004FF00003EB0043EA5473E20014461D46C8
:105820004346E318C7F898304B4645EB0303C7F8E7
:105830009C30D7F8F4305B680022C7F89030C7F886
:1058400094204FF000024FF00003D7E92445294689
:105850008B00214643EA917321468A00D7E926014D
:10586000FBF7EAF902460B46604BA3FB02235B09F8
:105870001C01D7F8FC300022C7F88830C7F88C200C
:10588000D7E9228942464B469118B9615B41FB61D9
:10589000D7E9062341465118396149464B417B619E
:1058A0004FF000024FF00003D7E904AB5946CB009C
:1058B000514643EA51735146CA0010461946034601
:1058C00042469B18C7F880304B460A4642EB03031A
:1058D000C7F88430D7F8F4305B680022BB67FA67FA
:1058E0004FF000024FF00003D7E91E8949468B00B4
:1058F000414643EA917341468A00D7E92001FBF70C
:105900009BF902460B461146384BA3FB01235B096A
:10591000642202FB03F3CB1A1B013233334AA2FB8E
:1059200003235B0903F0F0031C44D7F8FC3000228A
:105930003B677A67D7E91C8942464B469118B960A4
:105940005B41FB60D7E90223414651183960494663
:105950004B417B604FF000024FF00003D7E900ABF2
:105960005946CB00514643EA51735146CA0010468E
:105970001946034642469B18BB664B460A4642EB15
:105980000303FB66D7F8F4305B6800223B667A6657
:105990004FF000024FF00003D7E9188949468B0009
:1059A000414643EA917341468A00D7E91A01FBF761
:1059B00043F902460B460D4BA3FB02135B0964211E
:1059C00001FB03F3D31A1B013233084AA2FB032362
:1059D0005B0903F00F02D7F8F4301B6822449A6089
:1059E00000BF07F58077BD46BDE8B08F1F85EB513E
:1059F00080B483B000AF03463960FB7197F907307C
:105A0000002B0ADB3B68DAB20C4997F90730120128
:105A1000D2B20B4483F800230AE03B68DAB20849AB
:105A2000FB7903F00F03043B1201D2B20B441A7648
:105A300000BF0C37BD465DF8047B704700E100E015
:105A400000ED00E080B500AF054B1B6802F026F8C2
:105A50000346012B01D003F027F800BF80BD00BF33
:105A600010E000E080B500AF00216FF00400FFF708
:105A7000BFFF00BF80BD000080B483B000AFEFF374
:105A800005833B603B68002B03D06FF005037B6010
:105A90000CE00A4B1B68002B05D1084B01221A6051
:105AA00000237B6002E04FF0FF337B607B68184689
:105AB0000C37BD465DF8047B704700BF1C05002015
:105AC00080B582B000AF01F0E9FF0346002B04D09F
:105AD000022B05D102237B600CE003237B6009E0ED
